:100000000C9461000C94C7010C94A0010C947E0028
:100010000C947E000C947E000C947E000C947E0068
:100020000C947E000C947E000C947E000C947E0058
:100030000C947E000C947E000C947E000C947E0048
:100040000C9456010C947E000C947E000C947E005F
:100050000C947E000C947E000C947E000C947E0028
:100060000C947E000C947E00000000002400270009
:100070002A0000000000250028002B0000000000DE
:1000800023002600290004040404040404040202DA
:100090000202020203030303030301020408102007
:1000A0004080010204081020010204081020000012
:1000B0000008000201000003040700000000000027
:1000C000000011241FBECFEFD8E0DEBFCDBF11E08E
:1000D000A0E0B1E0EEE5F8E002C005900D92AE3090
:1000E000B107D9F721E0AEE0B1E001C01D92A13324
:1000F000B207E1F70E94EE010C942D040C9400006D
:1001000081E090E090932A01809329010895833043
:1001100081F028F4813099F08230A9F00895873079
:10012000A9F08830C9F08430B1F4809180008F7DCF
:1001300003C0809180008F7780938000089584B5FC
:100140008F7784BD089584B58F7DFBCF8091B000FB
:100150008F778093B00008958091B0008F7DF9CFA4
:10016000CF93DF93282F30E0F901E255FF4F8491C0
:10017000F901E656FF4FD491F901EA57FF4FC491B8
:10018000CC23A1F081110E948700EC2FF0E0EE0F4C
:10019000FF1FE458FF4FA591B491EC91ED2381E04E
:1001A00090E009F480E0DF91CF91089580E090E045
:1001B000FACF1F93CF93DF93282F30E0F901E25558
:1001C000FF4F8491F901E656FF4FD491F901EA57A8
:1001D000FF4FC491CC23A9F0162F81110E948700F4
:1001E000EC2FF0E0EE0FFF1FEE58FF4FA591B491FA
:1001F0008FB7F894EC91111108C0D095DE23DC93F1
:100200008FBFDF91CF911F910895DE2BF8CFCF9351
:10021000DF9390E0FC01E656FF4F24918A579F4FF1
:10022000FC0184918823C9F090E0880F991FFC019C
:10023000E859FF4FA591B491FC01EE58FF4FC591CD
:10024000D49161110DC09FB7F8948C9120958223B1
:100250008C938881282328839FBFDF91CF910895B5
:10026000623051F49FB7F8943C91822F809583239C
:100270008C93E8812E2BEFCF8FB7F894EC912E2B37
:100280002C938FBFEACF8E50806480937C00809146
:100290007A00806480937A0080917A0086FDFCCF9A
:1002A0008091780090917900089508951F920F929F
:1002B0000FB60F9211242F933F938F939F93AF9379
:1002C000BF938091130190911401A0911501B091F9
:1002D00016013091120123E0230F2D3758F50196B6
:1002E000A11DB11D2093120180931301909314015D
:1002F000A0931501B093160180910E0190910F010A
:10030000A0911001B09111010196A11DB11D809322
:100310000E0190930F01A0931001B0931101BF91B2
:10032000AF919F918F913F912F910F900FBE0F90A2
:100330001F90189526E8230F0296A11DB11DD2CF5C
:100340001F920F920FB60F9211242F933F934F934A
:100350005F936F937F938F939F93AF93BF93EF932D
:10036000FF93E0910201F09103010995FF91EF9154
:10037000BF91AF919F918F917F916F915F914F91BD
:100380003F912F910F900FBE0F901F9018951F92C5
:100390000F920FB60F9211242F933F934F935F93B9
:1003A0006F937F938F939F93AF93BF93EF93FF933D
:1003B000E0910001F09101010995FF91EF91BF914A
:1003C000AF919F918F917F916F915F914F913F91ED
:1003D0002F910F900FBE0F901F901895789484B5B1
:1003E000826084BD84B5816084BD85B5826085BD31
:1003F00085B5816085BD80916E00816080936E00BF
:1004000010928100809181008260809381008091B0
:100410008100816080938100809180008160809361
:1004200080008091B10084608093B1008091B00021
:1004300081608093B00080917A00846080937A001C
:1004400080917A00826080937A0080917A00816046
:1004500080937A0080917A00806880937A0010926D
:10046000C10062E082E00E94070180E890E0909382
:10047000010180930001809169008C7F81608093ED
:100480006900E89A61E083E00E94070161E086E08C
:100490000E94070160E086E00E94D90061E085E0EB
:1004A0000E94070160E085E00E94D90060E084E0DE
:1004B0000E940701CC24CA9483E0D82EE12CF12CB1
:1004C00000E010E0C1E0D0E084E00E94B000909332
:1004D000300180932F012FB7F894809113019091F0
:1004E0001401A0911501B09116012FBF40912B016D
:1004F00050912C0160912D0170912E01841B950B60
:10050000A60BB70BC397A105B10508F44CC08091A9
:10051000290190912A01892B09F445C02FB7F8943D
:100520008091130190911401A0911501B0911601D1
:100530002FBF80932B0190932C01A0932D01B0939A
:100540002E0182E00E94B000892B31F480910C01D1
:1005500090910D01019789F082E00E94B0008130F6
:100560009105E9F420910C0130910D01232BB9F490
:1005700090930D0180930C0112C081E090E02091D6
:10058000270130912801232B11F090E080E0909317
:1005900028018093270110920D0110920C011092F6
:1005A0002A011092290120912F013091300181E020
:1005B00090E0232B11F090E080E020912701309112
:1005C0002801822B932B892B09F4E5C08EE00E9431
:1005D000430127EE33E0DC010E942604A7019601C7
:1005E0000E94D6032F5F3F4F4F4F5F4F209308016C
:1005F0003093090140930A0150930B018FE00E9450
:10060000430127EE33E0DC010E942604A701960196
:100610000E94D6032F5F3F4F4F4F5F4F209304013F
:100620003093050140930601509307012FB7F894CA
:100630008091130190911401A0911501B0911601C0
:100640002FBF4091230150912401609125017091A9
:1006500026014C015D01841A950AA60AB70A409149
:1006600008015091090160910A0170910B018416F3
:100670009506A606B70640F18093230190932401C6
:10068000A0932501B0932601809121019091220130
:10069000892B09F06CC0D0932201C0932101809175
:1006A0001F0190912001892B09F066C0D093200191
:1006B000C0931F016091210186E00E94D9006091E2
:1006C0001F0183E00E94D9002FB7F8948091130195
:1006D00090911401A0911501B09116012FBF409186
:1006E0001B0150911C0160911D0170911E014C0174
:1006F0005D01841A950AA60AB70A40910401509137
:100700000501609106017091070184169506A60601
:10071000B70630F180931B0190931C01A0931D013B
:10072000B0931E018091190190911A01892B49F50E
:10073000D0931A01C093190180911701909118016B
:10074000892B21F5D0931801C093170160911901ED
:1007500085E00E94D9006091170183E00E94D900D2
:100760000115110509F4B0CE0E940000ADCE109223
:1007700022011092210193CF1092200110921F01AB
:1007800099CF10921A0110921901D6CF1092180128
:1007900010921701DBCF60E086E00E94D90060E094
:1007A00083E00E94D90060E085E0D8CF052E97FB5A
:1007B0001EF400940E94ED0357FD07D00E94F5033C
:1007C00007FC03D04EF40C94ED0350954095309502
:1007D00021953F4F4F4F5F4F0895909580957095AD
:1007E00061957F4F8F4F9F4F0895A1E21A2EAA1B4C
:1007F000BB1BFD010DC0AA1FBB1FEE1FFF1FA217D1
:10080000B307E407F50720F0A21BB30BE40BF50BCD
:10081000661F771F881F991F1A9469F76095709556
:10082000809590959B01AC01BD01CF010895A29FD9
:10083000B001B39FC001A39F700D811D1124911DB4
:10084000B29F700D811D1124911D08950E941704FF
:0E085000B7FF0895821B930B0895F894FFCF15
:0E085E0055015501F4010000E80300000100FF
:00000001FF
